:020000040800F2
:10240000300C0020C1250008C9250008CB25000894
:10241000CD250008CF250008D125000800000000C8
:10242000000000000000000000000000D3250008AC
:10243000D525000800000000D7250008E528000881
:10244000DB250008DB250008DB250008DB2500086C
:10245000DB250008DB250008DB250008DB2500085C
:10246000DB250008DB250008DB250008DB2500084C
:10247000DB250008DB250008DB250008DB2500083C
:10248000DB250008DB250008DB250008DB2500082C
:10249000DB250008DB250008DB250008DB2500081C
:1024A000DB250008DB250008DB250008DB2500080C
:1024B000DB250008DB250008DB250008DB250008FC
:1024C000DB250008DB250008DB250008DB250008EC
:1024D000DB250008DB250008DB250008DB250008DC
:1024E000DB250008DB250008DB25000800F002F8EA
:1024F00000F03CF80AA090E8000C82448344AAF162
:102500000107DA4501D100F031F8AFF2090EBAE85F
:102510000F0013F0010F18BFFB1A43F00103184717
:10252000901B0000B01B0000103A24BF78C878C18F
:10253000FAD8520724BF30C830C144BF04680C60C9
:10254000704700000023002400250026103A28BF11
:1025500078C1FBD8520728BF30C148BF0B60704715
:102560001FB500F062F81FBD10B510BD00F00CF9EA
:102570001146FFF7F5FF00F099FE00F02AF903B4C9
:10258000FFF7F2FF03BC00F033F900000B49D1F86C
:1025900000C04A685CF8043B1068184442F8040B19
:1025A0008C4528BFA1F1DC0C8A4228BFA1F1DC02D6
:1025B000C1F800C04A6020F000407047C405002008
:1025C0000948804709480047FEE7FEE7FEE7FEE7C7
:1025D000FEE7FEE7FEE7FEE7FEE7FEE70448054903
:1025E000054A064B70470000ED280008ED2400085E
:1025F00030060020300C0020300800203008002079
:102600000B4910B5A1F17C020A4CC2E937123721FF
:1026100006E000EB104342F82130074B00FB03407B
:102620000B1EA1F10101F4DC10BD0120E8E7000060
:1026300064050020E119D666CD0D010040EA0103D2
:1026400010B59B070FD1042A0DD310C808C9121F5B
:102650009C42F8D020BA19BA884201D9012010BD95
:102660004FF0FF3010BD1AB1D30703D0521C07E062
:10267000002010BD10F8013B11F8014B1B1B07D1C6
:1026800010F8013B11F8014B1B1B01D1921EF1D137
:10269000184610BD032A40F2308010F0030C00F001
:1026A000158011F8013BBCF1020F624498BF11F88C
:1026B00001CB00F8013B38BF11F8013BA2F1040245
:1026C00098BF00F801CB38BF00F8013B11F00303BD
:1026D00000F02880083AC0F0088051F8043B083A1E
:1026E00051F804CBA0E80810F5E7121D5CBF51F8C3
:1026F000043B40F8043BAFF30080D20724BF11F83D
:10270000013B11F801CB48BF11F8012B24BF00F8A1
:10271000013B00F801CB48BF00F8012B7047704720
:102720007047704710B5203AC0F00B80B1E81850E0
:10273000203AA0E81850B1E81850A0E81850BFF4AB
:10274000F5AF5FEA027C24BFB1E81850A0E818504A
:1027500044BF18C918C0BDE810405FEA827C24BF9E
:1027600051F8043B40F8043B08BF7047D20728BF2C
:1027700031F8023B48BF11F8012B28BF20F8023B7B
:1027800048BF00F8012B7047754600F02BF8AE46A5
:1027900005006946534620F00700854618B020B56D
:1027A000FFF71CFFBDE820404FF000064FF0000788
:1027B0004FF000084FF0000B21F00701AC46ACE8E9
:1027C000C009ACE8C009ACE8C009ACE8C0098D4656
:1027D000704710B50446AFF300802046BDE81040B6
:1027E000FFF7CDBE00487047CC05002070470000C1
:1027F00001491820ABBEFEE72600020010B500F02C
:1028000001F810BD0CB5002001900090334800681D
:1028100040F480303149086000BF3048006800F45F
:10282000003000900198401C0190009818B9019860
:10283000B0F5A06FF1D12948006800F4003010B164
:102840000120009001E0002000900098012843D171
:102850002348006840F010002149086008460068DD
:1028600020F0030008600846006840F0020008609D
:102870001A48406819494860084640684860084658
:10288000406840F4806048600846406820F47C104E
:1028900048600846406840F4E81048600846006810
:1028A00040F08070086000BF0C48006800F00070C5
:1028B0000028F9D00948406820F003000749486023
:1028C0000846406840F00200486000BF0348406886
:1028D00000F00C000828F9D10CBD000000100240E7
:1028E0000020024000B501F0D7FB00BD10B5134831
:1028F000006840F00100114908600846406810492E
:1029000008400E494860084600680E4908400B49D7
:1029100008600846006820F4802008600846406887
:1029200020F4FE0048604FF41F008860FFF766FF48
:102930004FF000600449086010BD00000010024024
:102940000000FFF8FFFFF6FE08ED00E070B504465A
:102950000D46204600F0C4F800BB1148007800EB9B
:102960008000104901EB4000216801600C480078AC
:1029700000EB80000B4901EB400029684160A98809
:10298000018107480078401C054908700846007816
:10299000052802D10020087000E000BF70BD0000D3
:1029A0003C000020B40400202DE9F04105460E460D
:1029B000002705F10E0004461C2E45D32088B0F5F3
:1029C000807F41D1608808283ED104221F4904F14C
:1029D0001800FFF733FEB8BBE088B0F5807F03D066
:1029E000B0F5007F2FD128E04FF40070E08004F1B3
:1029F0000801881DFFF7AAFFA068C4F81200A0898B
:102A0000E08213480168A1608088A081D4F80E009C
:102A1000A0610E480068C4F80E00D5F806002860D2
:102A20006889A8800A480168C5F80610808868810E
:102A30001C21284600F0FCFA00BF04F10801881DA3
:102A4000FFF784FF00BF00BFBDE8F0811800002041
:102A5000090000202DE9F04106461C4D05F10E0449
:102A6000304600F03DF8074617B13846BDE8F08122
:102A70000820608040012080E080042060710620F2
:102A800020713068A06112480068C4F80E00114837
:102A90000168A1608088A0810F480168C4F8121005
:102AA0008088E0824FF4C160A8810C4801682960E9
:102AB0008088A88007480168C5F80610808868816A
:102AC0001C21284600F0B4FA00BFCFE740000020E8
:102AD00018000020090000203600002030000020EF
:102AE00070B50546002412E004EB84010A4A02EBAB
:102AF000410004222946FFF7A1FD30B904EB840010
:102B0000054901EB4000001D70BD601CC4B2052CDE
:102B1000EADB0020F8E70000B404002030B50346EB
:102B20000C460021062A03D1891DA4F108000144A6
:102B300007E058781D7840EA052001449B1CA01E40
:102B400084B2012CF5DC14B1187801EB002102E00D
:102B500088B200EB1141080C0028F9D14FF47F40F6
:102B600000EA0120C1F307252843C04380B230BDED
:102B700030B51249481EB0F1807F01D301201BE01F
:102B8000481E4FF0E022506150170F22002804DB4E
:102B900013071C0E0A4B1C5406E013071D0E094BAD
:102BA00000F00F04241F1D5500BF00204FF0E0224D
:102BB000906107201061002030BD00004019010025
:102BC00000E400E018ED00E001B504490098086059
:102BD00000BF024800680028FBD108BD00000020AB
:102BE00010B55048006840F440504E49086008460F
:102BF000006820F4404008604A481030006840F007
:102C00000800484910310860FF220021104600F0FA
:102C100093F90520FFF7D8FF00BF1D21002000F029
:102C200021F908B9012000E0002000F0010000288F
:102C3000F3D10021082000F0AFF900210C2000F0B2
:102C4000ABF940F6FF310A2000F0A6F94FF44061DD
:102C5000042000F0A1F941F2FF11062000F09CF9D8
:102C6000382000F023F940F001042146382000F01C
:102C700093F90D21C02000F09CF90021C12000F043
:102C800098F93222C221802000F056F940F6124114
:102C9000C62000F081F91221C42000F08AF940F228
:102CA000DC51CA2000F078F91F480178E42000F0D8
:102CB00080F91D484178E52000F07BF91A488178B9
:102CC000E22000F076F91848C178E32000F071F9AD
:102CD00015480179E02000F06CF913484179E120B2
:102CE00000F067F94FF48071102000F041F940F2D4
:102CF0007641142000F03CF91F2000F0E1F8042296
:102D00001F21802000F018F90221752000F051F9F0
:102D10000A20FFF759FF04221F21802000F00CF940
:102D200010BD000000080140090000207CB50446E9
:102D30000D460026392000F0B9F8002839DD1E487C
:102D4000008881B2002000F027F96946062000F0D3
:102D500069F8BDF8000018490860BDF80200001FBE
:102D600086B2AE4200DD2E46BDF8040000F08000C1
:102D700008B9002603E02146304600F053F8002051
:102D8000A0550D480068401EB0F5406F05DB40F6C9
:102D9000FF310C2000F000F906E007480088401ED3
:102DA00081B20C2000F0F8F840221E21802000F0B3
:102DB000C3F830467CBD00001000002070B5054609
:102DC0000C4609E080221F21104600F0B5F8802251
:102DD0001F21A02000F0B0F81F21002000F042F8D1
:102DE00000F008000028EDD14FF44061022000F00F
:102DF000D3F804F5406081B2062000F0CDF808A1B8
:102E0000012000F079F82946204600F075F80822E4
:102E10001F21802000F090F80120FFF7D5FE70BD43
:102E20007830300010B504460B460D48006840F479
:102E300080100B4908603A2000F050FB04E00020AD
:102E400000F034FB03F8010B201EA4F101018CB249
:102E5000F5D10348006840F010000149086010BD3A
:102E60001008014030B504460B460F48006840F496
:102E700080100D49086003F01F0141EA040000F0D2
:102E80002DFB002000F02AFB03F0800008B100F0C9
:102E900007FB00F005FB05460348006840F0100002
:102EA00001490860284630BD1008014010B50446AD
:102EB000204600F005F821460020FFF7D3FF10BDA3
:102EC00010B5044604F060000A49097888420FD022
:102ED00003221F21A02000F02FF804F06000054914
:102EE00008700846007842111F21802000F024F865
:102EF00010BD00000800002010B504460B460D4828
:102F0000006840F480100B4908607A2000F0E6FA6F
:102F100003E013F8010B00F0E1FA201EA4F1010117
:102F20008CB2F6D10348006840F0100001490860F7
:102F300010BD00001008014030B503460C46154690
:102F40000A48006840F480100849086004F01F0136
:102F500041EA030000F0C2FA284600F0BFFA034835
:102F6000006840F010000149086030BD10080140C1
:102F700070B504460D462146D42000F01AF82946C3
:102F8000D62000F009F800BFEA20FFF78FFF00F01D
:102F900001000028F8D170BD70B505460C46E1B2BD
:102FA000284600F006F821126A1CD0B200F001F8A1
:102FB00070BD70B504460D462046FFF781FF2A46D6
:102FC00021464020FFF7B8FF70BD000070B50446F1
:102FD0000D46D4F8060020606089A080064801688C
:102FE000C4F806108088608105F10E0081B2204689
:102FF000FFF7E4FE70BD00000900002070B5054633
:103000000C460E2C13D3A889B0F5C16F06D1A4F1DC
:103010000E0081B22846FFF7C7FC08E0A8890828FF
:1030200005D1A4F1140081B2284600F0ABF870BDC0
:1030300070B505460C4604F10E0081B22846FFF734
:10304000BDFE70BD0348006940F080000149086181
:1030500070470000002002400248034948600348CE
:10306000486070472301674500200240AB89EFCDDF
:1030700000BF124AD26802F00102002AF9D10F4AB9
:10308000126942F001020D4B1A61018000BF0B4A28
:10309000D26802F00102002AF9D1801C090C0180DB
:1030A00000BF064AD26802F00102002AF9D1034AA1
:1030B000126922F00102014B1A61704700200240A0
:1030C0000246002001460FE0C1EBC100084B13F897
:1030D0002000904205D1C1EBC10003EB8000407895
:1030E0007047481CC0B201460229EDDB00BFF7E77C
:1030F0007C0400202DE9F04106460D46002706F12C
:103100000E0808F11404082D11D3207808280ED1D8
:10311000002020706080012229462046FFF7FEFC37
:10312000608005F1140081B2304600F003F83846A3
:10313000BDE8F0812DE9F04106460D46002706F175
:103140000E044FF47F4000EA052040EA152060801D
:103150000020E0808020207200206081E0682061F3
:1031600007480068E060002214212046FFF7D6FCE3
:10317000608129463046FFF729FF3846BDE8F081D7
:10318000180000202DE9F04105460E46002705F104
:103190000E04207845281ED10422104904F11000A5
:1031A000FFF74CFAB8B9A0784FF47F4101EA00204C
:1031B000618840EA1120143886B2607A012804D16F
:1031C00031462846FFF796FF05E0607A062802D1CF
:1031D000284600F033FE3846BDE8F0811800002094
:1031E0002DE9F04706460F46914606F10E040025EC
:1031F0000FE004F11000405D2849495D484028492E
:10320000495D084018B127480068206103E0681C48
:10321000C5B2042DEDDB00BF04F11000FFF71AFC6E
:103220008046B8F1000F36D0D8F800003060B8F80A
:103230000400B0801C480168C6F8061080887081C0
:1032400016480068E060452020700020607007F19B
:1032500014004FF47F4101EA002007F11401C1F38B
:103260000721084360800020E0800820207284F855
:1032700009900020A0806081002214212046FFF7E1
:103280004DFC608107F1140081B23046FFF7D0FE9B
:103290000120BDE8F0870020FBE7000018000020B7
:1032A000200000201C0000200900002008B5002597
:1032B00072B63A483A49086062B63A48806940F0C6
:1032C0001000384988613848406840F44010364959
:1032D00048600846406820F440004860084600699D
:1032E00040F000500861FFF743FC00F077F86420DD
:1032F000FFF76AFC502000F0B7F90646304600F0B0
:1033000083FD49E000F070F86946304600F0C2FDE8
:10331000044615B1012D3ED124E014B3082223A1A7
:103320002046FFF78BF928B9042223A1304600F08C
:10333000DFFD16E0042222A12046FFF77FF980B9C5
:10334000FFF78AFE20492148FFF792FEFFF77AFE39
:1033500006221FA1304600F0CBFD304600F0C4F835
:10336000012518E03046FFF7ABFE98B900BFBFF368
:103370004F8F0B48001D006800F4E06016490843B9
:10338000001D0749091D0860BFF34F8F00BF00BF34
:1033900000BFFDE700BF00BFB4E700000024000845
:1033A00008ED00E0001002400010014067657473F2
:1033B00074617465000000006170706C00000000B2
:1033C000626F6F7400000000368B1D8600FC0108E0
:1033D000746F626F6F7400000000FA0510B500F0A2
:1033E00013F8FFF7FDFB10BD70B5064D4FF480617B
:1033F0002846FFF79BFC041E03DD21462846FFF705
:10340000FDFD70BD400000201F48806941F20401AD
:1034100008431D4988610846406940F00100486141
:103420001A4800681A4908431849086008460068A5
:1034300018490840154908600846006816490843BD
:10344000124908601548008840F0040013490880BC
:103450000846008808800846008840F4007008800C
:103460000846008840F480700880084810300068E2
:1034700040F010000549103108600848008840F00D
:1034800040000649088070470010024000080140D3
:1034900000003330FFFF33330000808800300140EC
:1034A00000B5FF2000F002F800BD0000014600BF9B
:1034B0000948008900F002000028F9D006488181FF
:1034C00000BF0548008900F001000028F9D002483B
:1034D0008089C0B2704700000030014000B502464C
:1034E0001046FFF7E3FF00BD2DE9F04106465C4FB3
:1034F00007F10E0808F114050024ACE0C4EBC40089
:10350000584911F82000B0427ED1C4EBC40001EB51
:1035100080004078032877D1C4EBC40001EB800021
:1035200080884FF47F4101EA0020C4EBC4014D4A7A
:1035300002EB8101898840EA11206880C4EBC40055
:10354000114601EB800040884FF47F4101EA0020E2
:10355000C4EBC40102EB8101498840EA11202880B4
:10356000C4EBC400114601EB80000069C4EBC40148
:1035700002EB810109694FF47F4202EA112141EA1D
:103580001060C4EBC401374A02EB810109694FF4B2
:103590007F0202EA01210843C4EBC401314A02EB75
:1035A0008101097C4FF07F4202EA01610843A86073
:1035B000C4EBC4002B4901EB8000C068C4EBC4011C
:1035C000284A02EB8101C9684FF47F4202EA1121C7
:1035D00041EA1060C4EBC401224A02EB8101C968D0
:1035E0004FF47F0202EA01210843C4EBC4011D4AE3
:1035F00002EB8101097B4FF07F4202EA016108433F
:1036000068601120687300E023E00220E881002058
:1036100068825020287300202882A5F10800062225
:103620001C21FFF77BFA2882C4EBC4000D4901EB93
:103630008000D0F80600C8F8100006221421384691
:10364000FFF7CEFD0420C4EBC401064A02EB810162
:103650004870601CC4B2022CFFF650AFBDE8F08188
:10366000400000207C04002070B50546002427E0BF
:10367000C4EBC400144911F82000F8B9C4EBC4002D
:1036800001EB800045800020C4EBC4010E4A02EB30
:1036900081014870FEF77AFF401CC4EBC4010A4A5E
:1036A00002F821000120C4EBC40102EB8101887201
:1036B000C4EBC400114611F8200070BD601CC4B2F8
:1036C000022CD5DB0020F8E77C0400202DE9F04730
:1036D0000546884608F10E0707F11404B8784FF440
:1036E0007F4101EA0020798840EA11201438217BCB
:1036F000A0EBA10086B2607B142808D10020C5EBA6
:10370000C501FD4A02EB81014870BDE8F087C5EBB9
:10371000C500F94901EB8000407830B102287DD026
:1037200003287CD004287BD137E1607B022878D144
:1037300020884FF47F4101EA0020218840EA1120CF
:10374000C5EBC501EC4A02EB81018880C5EBC500E1
:10375000114601EB8000F968C0F80610C5EBC50002
:10376000114601EB800080884FF47F4101EA002080
:10377000C5EBC50102EB8101898840EA1120608018
:10378000C5EBC500114601EB800040884FF47F4136
:1037900001EA0020C5EBC50102EB8101498840EA3E
:1037A000112020804FF47F42616802EA1121606895
:1037B00041EA10601202616802EA0121084321799E
:1037C000120202EA01610843401C000E4FF47F43DD
:1037D000626803EA1222616842EA11611B026268B0
:1037E00003EA0222114322791B0203EA0262114317
:1037F000491C1A0C02EA112108431B0C626803EAF7
:103800001222616842EA1161A2881B0203EA0222C5
:1038100011432279002303EA026203E0B2E06FE180
:10382000EBE2AEE01143491C4FF47F0202EA0121B2
:103830000843A18803EA1121626841EA12612279F2
:1038400003EA02221143227903EA02621143491C6E
:103850004FF07F4202EA01610843A060FEF796FE46
:103860004FEA1069FEF792FE4FF47F4101EA2020F3
:1038700049EA0009FEF78AFE4FF47F0101EA0020C1
:1038800049EA0009FEF782FE4FF07F4101EA00603D
:1038900049EA0009C4F804904FF47F42616802EAE3
:1038A0001121606841EA10601202616802EA012198
:1038B00008432179120202EA01610843C5EBC50100
:1038C0008D4A02EB8101C8604FF47F42A16802EA91
:1038D0001121A06841EA10601202A16802EA0121E8
:1038E0000843217A120202EA01610843C5EBC501CF
:1038F000814A02EB81010861122060730220E0819D
:10390000002060821826B000207302202075042158
:1039100061750521A1758221E1750020208206F1E3
:103920000801A4F108000622FFF7F8F82082C5EB91
:10393000C501714A02EB8101881D08F10601FFF7FC
:1039400005F8C5EBC5006C4901EB8000D0F8060016
:103950003861062231464046FFF742FC0220C5EBA3
:10396000C501654A02EB81014870C5EBC5001146EF
:1039700001EB8000C068401CC5EBC50102EB810172
:10398000C8603AE2607B102806D10320C5EBC50170
:10399000594A02EB810148702FE2607B11287DD1EA
:1039A000C5EBC500544901EB800080884FF47F418E
:1039B00001EA0020C5EBC5014F4A02EB810189886D
:1039C00040EA11206080C5EBC500114601EB800084
:1039D00040884FF47F4101EA0020C5EBC50102EBAE
:1039E0008101498840EA112020804449A06808608C
:1039F0004FF47F42616802EA1121606841EA106079
:103A00001202616802EA012108432179120202EAE6
:103A100001610843401C000E4FF47F43626803EAD3
:103A20001222616842EA11611B02626803EA022203
:103A3000114322791B0203EA02621143491C1A0C4A
:103A400002EA112108431B0C626803EA1222616832
:103A500042EA1161A2881B0203EA02221143227981
:103A6000002303EA02621143491C4FF47F0202EA79
:103A700001210843A18803EA1121626841EA126129
:103A8000227903EA02221143227903EA02621143F6
:103A9000491C4FF07F4202EA016100E02BE008433D
:103AA000A060164800686060102060730220E0810A
:103AB000002060821426B00020730020208206F1CE
:103AC0000801A4F108000622FFF728F82082C5EBC0
:103AD000C500094901EB8000D0F8060038610622D4
:103AE00031464046FFF77CFB0020C5EBC501024A8A
:103AF00002EB8101487080E17C0400202800002056
:103B0000607B18287DD1002E13DD0020C5EBC50198
:103B1000BB4A02EB81010875C5EBC500114601EBFC
:103B20008000C68204F11400C5EBC50102EB8101DF
:103B30008861C5EBC500B24901EB800080884FF475
:103B40007F4101EA0020C5EBC501AD4A02EB8101CE
:103B5000898840EA11206080C5EBC500114601EB61
:103B6000800040884FF47F4101EA0020C5EBC50189
:103B700002EB8101498840EA11202080C5EBC50095
:103B8000114601EB800000693044C5EBC50102EB32
:103B900081010861C5EBC500114601EB8000006999
:103BA000C5EBC50102EB810109694FF47F4202EACE
:103BB000112141EA1060C5EBC501914A02EB810178
:103BC00009694FF47F0202EA01210843C5EBC501F0
:103BD0008B4A02EB8101097C4FF07F4202EA0161CE
:103BE0000843A060C5EBC500854901EB8000C068B3
:103BF000C5EBC501824A02EB8101C9684FF47F42DF
:103C000000E03BE002EA112141EA1060C5EBC5018A
:103C10007B4A02EB8101C9684FF47F0202EA01216D
:103C20000843C5EBC501764A02EB8101097B4FF0E1
:103C30007F4202EA01610843606010206073022045
:103C4000E081002060821426B000207300202082D2
:103C500006F10801A4F108000622FEF75FFF2082AA
:103C6000C5EBC500664901EB8000D0F8060038615D
:103C7000062231464046FFF7B3FABDE0607B1128CB
:103C8000FBD1C5EBC5005E4901EB800080884FF495
:103C90007F4101EA0020C5EBC501594A02EB8101D1
:103CA000898840EA11206080C5EBC500114601EB10
:103CB000800040884FF47F4101EA0020C5EBC50138
:103CC00002EB8101498840EA112020804D49A0681B
:103CD00008604FF47F42616802EA1121606841EA9E
:103CE00010601202616802EA012108432179120280
:103CF00002EA01610843401C000E4FF47F436268F2
:103D000003EA1222616842EA11611B02626803EA57
:103D10000222114322791B0203EA02621143491C69
:103D20001A0C02EA112108431B0C626803EA1222F2
:103D3000616842EA1161A2881B0203EA0222114370
:103D40002279002303EA02621143491C4FF47F02E7
:103D500002EA01210843A18803EA1121626841EACD
:103D60001261227903EA02221143227903EA0262F4
:103D70001143491C4FF07F4202EA01610843A060F1
:103D8000204800686060102060730220E0810020FD
:103D900060821426B00020730020208206F1080102
:103DA000A4F108000622FEF7B9FE2082C5EBC5008B
:103DB000134901EB8000D0F8060038610622314635
:103DC0004046FFF70DFA1120607300BF00202082EB
:103DD00006F10801A4F108000622FEF79FFE2082EA
:103DE000062231464046FFF7FBF90020C5EBC5012E
:103DF000034A02EB8101487000BF00BF00BF84E4AA
:103E00007C0400202800002010B5014600200FE0AF
:103E1000C0EBC002084B13F822208A4206D10022D0
:103E2000C0EBC003044C04EB83039A72421CD0B273
:103E30000228EDDB10BD00007C0400202DE9F041DC
:103E4000054605F10E0707F1140600241CE0C4EB3B
:103E5000C4000F4901EB8000807A98B970884FF454
:103E60007F4101EA0020718840EA1120C4EBC401BF
:103E7000074A02EB81014988884203D1294620463E
:103E8000FFF724FC601CC4B2022CE0DBBDE8F0812B
:103E90007C04002030B502460B46002122E0C1EB35
:103EA000C100124C14F82000904219D1C1EBC1009E
:103EB00004EB8000007D98B90120C1EBC1040B4DDB
:103EC00005EB84042075C1EBC1002C4604EB800097
:103ED000C08A1880C1EBC10004EB8000806930BD4E
:103EE000481CC1B20229DADB0020F8E77C0400207C
:103EF0002DE9F04707468A461646DFF8948108F117
:103F00000E0909F114050024BDE0C4EBC4006149A9
:103F100011F82000B8427CD1C4EBC40001EB800052
:103F200040780328F7D1C4EBC40001EB80008088FF
:103F30004FF47F4101EA0020C4EBC401554A02EB73
:103F40008101898840EA11206880C4EBC4001146D1
:103F500001EB800040884FF47F4101EA0020C4EB70
:103F6000C40102EB8101498840EA11202880C4EB9A
:103F7000C400114601EB80000069C4EBC40102EBF0
:103F8000810109694FF47F4202EA112141EA106080
:103F9000C4EBC4013F4A02EB810109694FF47F027F
:103FA00002EA01210843C4EBC4013A4A02EB810151
:103FB000097C4FF07F4202EA01610843A860C4EB2C
:103FC000C400344901EB8000C068C4EBC401314A2D
:103FD00002EB8101C9684FF47F4202EA112141EAF4
:103FE0001060C4EBC4012B4A02EB8101C9684FF495
:103FF0007F0202EA01210843C4EBC401254A02EB17
:104000008101097B4FF07F4202EA01610843686049
:1040100000E036E0C4EBC4001E4901EB8000C0683C
:104020003044C4EBC4011B4A02EB8101C860182074
:1040300068730220E881002068825020287332468D
:10404000514605F11400FEF725FB06F1140086B277
:104050000020288206F1080291B2A5F1080006228C
:10406000FEF75CFD2882C4EBC4000A4901EB800026
:10407000D0F80600C9F81000062231464046FFF786
:10408000AFF8601CC4B2022CFFF63FAFBDE8F0876A
:10409000400000207C0400200448006820B1034850
:1040A0000068401E014908607047000000000020C1
:1040B000D040000800000020400000002825000833
:1040C0001041000840000020F00B000044250008CB
:1040D00000000000000000000000DB70D784F90041
:1040E0000000000000000000C0A8000FC0A80001F0
:1040F000FFFFFF00000000000000000000000000C3
:10410000FFFFFFFFFFFF00000000000000000000B5
:04000005080025C109
:00000001FF
